:020000040000FA
:100000000C9462000C948A000C948A000C948A0070
:100010000C948A000C948A000C948A000C948A0038
:100020000C948A000C948A000C948A000C948A0028
:100030000C948A000C948A000C948A000C948A0018
:100040000C94D1030C948A000C949F030C947903B4
:100050000C948A000C948A000C948A000C948A00F8
:100060000C948A000C948A000000000024002700F1
:100070002A0000000000250028002B0000000000DE
:1000800023002600290004040404040404040202DA
:100090000202020203030303030301020408102007
:1000A0004080010204081020010204081020000012
:1000B0000008000201000003040700000000000027
:1000C00000001B0411241FBECFEFD8E0DEBFCDBF60
:1000D00012E0A0E0B1E0E6E2FEE002C005900D9281
:1000E000A836B107D9F723E0A8E6B2E001C01D9217
:1000F000AD37B207E1F710E0C2E6D0E004C02197C7
:10010000FE010E940B07C136D107C9F70E94A8045F
:100110000C9411070C94000096E0899FD0011124E3
:10012000A25FBC4F90967C936E935F9791E09196FF
:100130009C939197E0917B03F0917C0390917A03DB
:10014000992339F0309751F0811108C080912A032A
:100150000994309719F05C968C91FACF0895CF925C
:10016000DF92EF92FF920F931F9396E0899FF00129
:100170001124E25FFC4F11A2278D30A121303105FF
:1001800051F178F02230310509F451C023303105A6
:1001900009F452C01F910F91FF90EF90DF90CF9024
:1001A00008956623B9F361E070E00E948C002FB7D8
:1001B000F89480916D0290916E02A0916F02B091BF
:1001C00070022FBF8093660390936703A093680328
:1001D000B0936903DFCF9FB7F894C0906D02D090C1
:1001E0006E02E0906F02F09070029FBF0091660374
:1001F000109167032091680330916903C01AD10AF6
:10020000E20AF30A009178031091790330E020E0CC
:100210000C151D052E053F0550F462E070E01F919E
:100220000F91FF90EF90DF90CF900C948C006111B4
:10023000B1CF63E070E0F3CF70E060E0F0CFAF9259
:10024000BF92CF92DF92EF92FF920F931F93CF93C3
:10025000DF936C017B018B01040F151FEB015E0125
:10026000AE18BF08C017D10759F06991D601ED91BA
:10027000FC910190F081E02DC6010995892B79F759
:10028000C501DF91CF911F910F91FF90EF90DF900B
:10029000CF90BF90AF900895FC01538D448D252FD2
:1002A00030E0842F90E0821B930B541710F0CF9610
:1002B000089501970895FC01918D828D981761F042
:1002C000A28DAE0FBF2FB11D5D968C91928D9F5F59
:1002D0009F73928F90E008958FEF9FEF0895FC0138
:1002E000918D828D981731F0828DE80FF11D858DEB
:1002F00090E008958FEF9FEF0895FC01918D228D7E
:10030000892F90E0805C9F4F821B91098F73992702
:10031000089581E792E00E947D0121E0892B09F494
:1003200020E0822F089580E090E0892B29F00E9440
:10033000890181110C9400000895FC01A48DA80F7F
:10034000B92FB11DA35ABF4F2C91848D90E0019617
:100350008F739927848FA689B7892C93A089B18937
:100360008C91837080648C93938D848D981306C0D8
:100370000288F389E02D80818F7D80830895EF923C
:10038000FF920F931F93CF93DF93EC0181E0888F4F
:100390009B8D8C8D98131AC0E889F989808185FF1F
:1003A00015C09FB7F894EE89FF896083E889F989C1
:1003B00080818370806480839FBF81E090E0DF91C3
:1003C000CF911F910F91FF90EF900895F62E0B8D16
:1003D00010E00F5F1F4F0F731127E02E8C8D8E11D1
:1003E0000CC00FB607FCFACFE889F989808185FF38
:1003F000F5CFCE010E949D01F1CFEB8DEC0FFD2FCB
:10040000F11DE35AFF4FF0829FB7F8940B8FEA89F2
:10041000FB8980818062CFCFCF93DF93EC01888D01
:100420008823B9F0AA89BB89E889F9898C9185FD6F
:1004300003C0808186FD0DC00FB607FCF7CF8C91FD
:1004400085FFF2CF808185FFEDCFCE010E949D0117
:10045000E9CFDF91CF910895833081F028F4813086
:1004600099F08230A9F008958730A9F08830C9F05A
:100470008430B1F4809180008F7D03C08091800032
:100480008F7780938000089584B58F7784BD089519
:1004900084B58F7DFBCF8091B0008F778093B000C3
:1004A00008958091B0008F7DF9CFCF93DF93282FEF
:1004B00030E0F901E255FF4F8491F901E656FF4F14
:1004C000D491F901EA57FF4FC491CC23A1F08111D7
:1004D0000E942C02EC2FF0E0EE0FFF1FE458FF4FBC
:1004E000A591B491EC91ED2381E090E009F480E0D6
:1004F000DF91CF91089580E090E0FACF862F0C94A1
:1005000055021F93CF93DF93282F30E0F901E25576
:10051000FF4F8491F901E656FF4FD491F901EA5754
:10052000FF4FC491CC23A9F0162F81110E942C02F9
:10053000EC2FF0E0EE0FFF1FEE58FF4FA591B491A6
:100540008FB7F894EC91111108C0D095DE23DC939D
:100550008FBFDF91CF911F910895DE2BF8CF862FAB
:10056000642F0C948102CF93DF9390E0FC01E65658
:10057000FF4F24918A579F4FFC0184918823C9F033
:1005800090E0880F991FFC01E859FF4FA591B491A5
:10059000FC01EE58FF4FC591D49161110DC09FB77A
:1005A000F8948C91209582238C938881282328832A
:1005B0009FBFDF91CF910895623051F49FB7F894B7
:1005C0003C91822F809583238C93E8812E2BEFCF53
:1005D0008FB7F894EC912E2B2C938FBFEACF862FF8
:1005E000642F0C94B3023FB7F89480916902909104
:1005F0006A02A0916B02B0916C0226B5A89B05C05F
:100600002F3F19F00196A11DB11D3FBFBA2FA92F91
:10061000982F8827BC01CD01620F711D811D911D8E
:1006200042E0660F771F881F991F4A95D1F70895FA
:100630008F929F92AF92BF92CF92DF92EF92FF92F2
:100640006C0161E08BE00E94810261E08DE00E941C
:1006500081020D2C000CEE08FF080E94F3024B01F2
:100660005C010E94F302681979098A099B09683EB6
:10067000734081059105A8F321E0C21AD108E10871
:10068000F10888EE880E83E0981EA11CB11CC114ED
:10069000D104E104F10429F760E08BE00E948102BB
:1006A00060E08DE0FF90EF90DF90CF90BF90AF9033
:1006B0009F908F900C948102CF93DF93FC01019067
:1006C0000020E9F73197AF01481B590BBC0181E7C6
:1006D00092E00E941F01EC0142E050E064E371E00F
:1006E00081E792E00E941F018C0F9D1FDF91CF9147
:1006F00008951F920F920FB60F9211242F933F93DC
:100700004F935F936F937F938F939F93AF93BF9319
:10071000EF93FF9381E792E00E949D01FF91EF919B
:10072000BF91AF919F918F917F916F915F914F9109
:100730003F912F910F900FBE0F901F9018951F9211
:100740000F920FB60F9211242F938F939F93EF93D5
:10075000FF93E0918102F09182028081E091870213
:10076000F091880282FD1BC0908180918A028F5F88
:100770008F7320918B02821741F0E0918A02F0E0A2
:10078000EF58FD4F958F80938A02FF91EF919F91D3
:100790008F912F910F900FBE0F901F901895808111
:1007A000F4CF1F920F920FB60F9211242F933F9305
:1007B0008F939F93AF93BF9380916D0290916E0240
:1007C000A0916F02B09170023091680223E0230F74
:1007D0002D3758F50196A11DB11D20936802809315
:1007E0006D0290936E02A0936F02B093700280919D
:1007F000690290916A02A0916B02B0916C0201961D
:10080000A11DB11D8093690290936A02A0936B02AF
:10081000B0936C02BF91AF919F918F913F912F91B7
:100820000F900FBE0F901F90189526E8230F029689
:10083000A11DB11DD2CF109274021092730288EEE6
:1008400093E0A0E0B0E08093750290937602A093CD
:100850007702B09378028CE191E0909372028093DA
:10086000710285EC90E090937E0280937D0284EC8F
:1008700090E09093800280937F0280EC90E09093D0
:1008800082028093810281EC90E0909384028093B5
:10089000830282EC90E0909386028093850286EC3E
:1008A00090E0909388028093870210928A021092BF
:1008B0008B0210928C0210928D02109210031092F3
:1008C000140310921303109215038EE291E090939B
:1008D0000F0380930E03EAE2F3E010821482138286
:1008E0001582369683E0E636F807B9F784E091E0A2
:1008F000909371038093700380E091E09093730371
:100900008093720384E0809374038093750388E07E
:1009100091E090936F0380936E038AE090E0909350
:1009200077038093760384EF91E09093790380932B
:10093000780310927C0310927B0310926A0310924A
:100940006B0310926C0310926D0310927A0308955A
:10095000789484B5826084BD84B5816084BD85B59A
:10096000826085BD85B5816085BD80916E008160A6
:1009700080936E001092810080918100826080934C
:10098000810080918100816080938100809180004E
:100990008160809380008091B10084608093B10079
:1009A0008091B00081608093B00080917A00846073
:1009B00080937A0080917A00826080937A0080919F
:1009C0007A00816080937A0080917A0080688093B9
:1009D0007A001092C100E0918102F091820282E0DF
:1009E0008083E0917D02F0917E021082E0917F028F
:1009F000F09180028FEC808310928902E091850251
:100A0000F091860286E08083E0918302F091840277
:100A1000808180618083E0918302F09184028081F3
:100A200088608083E0918302F091840280818068F5
:100A30008083E0918302F091840280818F7D8083A6
:100A400061E08BE00E94B30261E08DE00E94B3029E
:100A500087E391E00E945C0382E691E00E945C03E0
:100A60008FE691E00E945C0382E891E00E945C03C3
:100A700086E991E00E945C0389EA91E00E945C03B0
:100A80008DEB91E00E945C038DEC91E00E945C0391
:100A90008EED91E00E945C038EEE91E00E945C037B
:100AA0008FEF91E00E945C0389E192E00E945C0379
:100AB00083E392E00E945C038DE492E00E945C0379
:100AC000812C912C5401839422242A94322C50E0BE
:100AD000652E50E0752E51E050937A038FB7F8944D
:100AE00040916D0250916E0260916F0270917002A0
:100AF0008FBF80916A0390916B03A0916C03B091BA
:100B00006D03481B590B6A0B7B0B80917603909108
:100B10007703B0E0A0E084179507A607B70708F0B1
:100B200017C1C0E080917403C81760F4E0917003AE
:100B3000F0917103EC0FF11D62E080810E94B3021D
:100B4000CF5FF0CF512C80917503581608F05FC02D
:100B5000052D10E0E0917203F0917303E00FF11F97
:100B600061E080810E94B302E0917203F09173030F
:100B7000E00FF11F60E080810E948102D501C40175
:100B8000052C04C0880F991FAA1FBB1F0A94D2F717
:100B90006C017C01E094F094412C80917403481620
:100BA000F8F4C42DD0E0E0917003F0917103EC0FE4
:100BB000FD1F80810E9455022496CC0FDD1FC25F6D
:100BC000DC4F892B41F4888199818C299D29998357
:100BD00088834394E2CF888199818E219F21F7CF2A
:100BE000E0917203F0917303E00FF11F61E08081E7
:100BF0000E9481028091720390917303080F191F64
:100C000060E0F80180810E94B30253949CCFCEE053
:100C1000D3E0FE01878D90A1892B21F4148E368EAE
:100C2000258E11A2369653E0EA34F50799F710E0C5
:100C300080917403181708F053C000E0E12EF12CE6
:100C4000EE0CFF1CC7018A5E9C4F7C01209175034E
:100C5000021708F043C0F70160817181002E02C0C5
:100C6000769567950A94E2F7129F90011124200F60
:100C7000311DEEE0F3E080E0458D568D24173507F9
:100C800009F4C7C08F5F36968A30B1F760FF24C081
:100C9000EEE0F3E090E080E0448D411118C0E09177
:100CA0006E03F0916F03E20FF31F408156E0589FEF
:100CB000F001599FF00D1124E25FFC4F448F368FF5
:100CC000258F10A2178E61E00E94AF0005C001962B
:100CD00036968A30910501F70F5FB8CF1F5FA8CF16
:100CE00080E099A19111892F269693E0CA34D90703
:100CF000C1F79FB7F89440916D0250916E026091D8
:100D00006F02709170029FBF40936A0350936B0310
:100D100060936C0370936D038823D1F080912F034F
:100D20008823B1F080912D0390912E03019781F4D7
:100D3000E0912A03E1110FC06114710409F4CBCED4
:100D40000E948901882309F4C6CE0E940000C3CE08
:100D500010927A03F1CFE352E23270F70E2E000CBC
:100D6000FF0BEB54F94F0C940B07FA069C069C06FC
:100D70009C069C069C069C06F4069C069C069C060B
:100D80009C069C06F706D706DC06DF06E206E506AB
:100D9000E806EB06EE06F1069C069C069C069C0601
:100DA0009C069C069C06FD060007030706078AE0D2
:100DB00090E00E941803C0CF84E190E0FACF8EE16A
:100DC00090E0F7CF88E290E0F4CF82E390E0F1CFBB
:100DD0008CE390E0EECF86E490E0EBCF80E590E00E
:100DE000E8CF8AE590E0E5CF84E690E0E2CF8EE6BA
:100DF00090E0DFCF88E790E0DCCF82E890E0D9CFC9
:100E00008CE890E0D6CF86E990E0D3CF80EA90E0FE
:100E1000D0CF617059CFEE0FFF1F0590F491E02DF8
:100E20000994F894FFCF0203040506070809373830
:100E3000394134353642313233432A3023440000BD
:100E40000000BF011F014C010C027D015B016F011D
:100E500000000000EF02AF027E020D0A0069742755
:100E600073206C696B652073696D706C6520736DA0
:100E700061727420686F6D652077697468204C69B1
:100E80004669207465636800736574206F707469C7
:100E90006F6E203A003129205475726E206F6E20DB
:100EA0006D6F746F722031003229205475726E207C
:100EB0006F6666206D6F746F722031003329205485
:100EC00075726E206F6E206D6F746F7220320034F9
:100ED00029205475726E206F6666206D6F746F7274
:100EE0002032003529205475726E206F6E206C619F
:100EF0006D70003629205475726E206F6666206C06
:100F0000616D70003729205475726E206F6E206CF1
:100F1000616D70003829205475726E206F666620EE
:100F20006C616D70002B2920696E63726561736559
:100F3000207370656564206D6F746F722031002DB1
:100F400029206465637265617365207370656564EB
:100F5000206D6F746F72203100782920696E637282
:100F600065617365207370656564206D6F746F7261
:100F70002032002F292064656372656173652073D8
:0E0F800070656564206D6F746F722032000022
:107E0000112484B714BE81FFF0D085E080938100F7
:107E100082E08093C00088E18093C10086E0809377
:107E2000C20080E18093C4008EE0C9D0259A86E02C
:107E300020E33CEF91E0309385002093840096BBD3
:107E4000B09BFECF1D9AA8958150A9F7CC24DD24C4
:107E500088248394B5E0AB2EA1E19A2EF3E0BF2EE7
:107E6000A2D0813461F49FD0082FAFD0023811F036
:107E7000013811F484E001C083E08DD089C08234E0
:107E800011F484E103C0853419F485E0A6D080C0E4
:107E9000853579F488D0E82EFF2485D0082F10E0AE
:107EA000102F00270E291F29000F111F8ED06801E7
:107EB0006FC0863521F484E090D080E0DECF843638
:107EC00009F040C070D06FD0082F6DD080E0C81688
:107ED00080E7D80618F4F601B7BEE895C0E0D1E017
:107EE00062D089930C17E1F7F0E0CF16F0E7DF06D8
:107EF00018F0F601B7BEE89568D007B600FCFDCFD4
:107F0000A601A0E0B1E02C9130E011968C91119780
:107F100090E0982F8827822B932B1296FA010C0160
:107F200087BEE89511244E5F5F4FF1E0A038BF0790
:107F300051F7F601A7BEE89507B600FCFDCF97BE46
:107F4000E89526C08437B1F42ED02DD0F82E2BD052
:107F50003CD0F601EF2C8F010F5F1F4F84911BD097
:107F6000EA94F801C1F70894C11CD11CFA94CF0C13
:107F7000D11C0EC0853739F428D08EE10CD085E9AC
:107F80000AD08FE07ACF813511F488E018D01DD067
:107F900080E101D065CF982F8091C00085FFFCCF94
:107FA0009093C60008958091C00087FFFCCF809118
:107FB000C00084FD01C0A8958091C6000895E0E648
:107FC000F0E098E1908380830895EDDF803219F02E
:107FD00088E0F5DFFFCF84E1DECF1F93182FE3DFCA
:107FE0001150E9F7F2DF1F91089580E0E8DFEE27F6
:047FF000FF270994CA
:027FFE00040479
:00000001FF
