:020000040000FA
:100000000C9462000C948A000C948A000C948A0070
:100010000C948A000C948A000C948A000C948A0038
:100020000C948A000C948A000C948A000C948A0028
:100030000C948A000C948A000C948A000C948A0018
:100040000C9452060C948A000C9420060C94FA0529
:100050000C948A000C948A000C948A000C948A00F8
:100060000C948A000C948A000000000024002700F1
:100070002A0000000000250028002B0000000008D6
:10008000000201000003040700000000000000005F
:1000900000000000230026002900040404040404D6
:1000A0000404020202020202030303030303010227
:1000B00004081020408001020408102001020408F6
:1000C0001020E10611241FBECFEFD8E0DEBFCDBF68
:1000D00013E0A0E0B1E0E0ECF2E102C005900D9287
:1000E000AC35B107D9F724E0ACE5B3E001C01D920F
:1000F000AA31B207E1F710E0C2E6D0E004C02197D0
:10010000FE010E945809C136D107C9F70E942B078A
:100110000C945E090C940000AF92BF92CF92DF92D4
:10012000EF92FF920F931F93CF93DF936C017B01AC
:100130008B01040F151FEB015E01AE18BF08C0173D
:10014000D10759F06991D601ED91FC910190F081B0
:10015000E02DC6010995892B79F7C501DF91CF9173
:100160001F910F91FF90EF90DF90CF90BF90AF90D5
:100170000895FC01538D448D252F30E0842F90E0AD
:10018000821B930B541710F0CF9608950197089592
:10019000FC01918D828D981761F0A28DAE0FBF2F5B
:1001A000B11D5D968C91928D9F5F9F73928F90E0B1
:1001B00008958FEF9FEF0895FC01918D828D981720
:1001C00031F0828DE80FF11D858D90E008958FEF5D
:1001D0009FEF0895FC01918D228D892F90E0805C26
:1001E0009F4F821B91098F739927089585E693E0AD
:1001F0000E94EA0021E0892B09F420E0822F089573
:1002000080E090E0892B29F00E94F60081110C9487
:1002100000000895FC01A48DA80FB92FB11DA35AA9
:10022000BF4F2C91848D90E001968F739927848F16
:10023000A689B7892C93A089B1898C918370806439
:100240008C93938D848D981306C00288F389E02DDA
:1002500080818F7D80830895EF92FF920F931F938B
:10026000CF93DF93EC0181E0888F9B8D8C8D981369
:100270001AC0E889F989808185FF15C09FB7F89475
:10028000EE89FF896083E889F989808183708064C1
:1002900080839FBF81E090E0DF91CF911F910F910C
:1002A000FF90EF900895F62E0B8D10E00F5F1F4F1B
:1002B0000F731127E02E8C8D8E110CC00FB607FC2A
:1002C000FACFE889F989808185FFF5CFCE010E94B8
:1002D0000A01F1CFEB8DEC0FFD2FF11DE35AFF4F1B
:1002E000F0829FB7F8940B8FEA89FB898081806246
:1002F000CFCFCF93DF93EC01888D8823B9F0AA8903
:10030000BB89E889F9898C9185FD03C0808186FDD0
:100310000DC00FB607FCF7CF8C9185FFF2CF80811F
:1003200085FFEDCFCE010E940A01E9CFDF91CF9189
:10033000089590E0FC01E458FF4F2491FC01E25540
:10034000FF4F3491FC01E656FF4FE491EE23C9F0D4
:10035000222339F0233001F1A8F4213019F12230A1
:1003600029F1F0E0EE0FFF1FEE58FF4FA591B49179
:100370008FB7F894EC91611126C030953E233C93E1
:100380008FBF08952730A9F02830C9F0243049F7ED
:10039000809180008F7D03C0809180008F77809353
:1003A0008000DFCF84B58F7784BDDBCF84B58F7DB0
:1003B000FBCF8091B0008F778093B000D2CF809137
:1003C000B0008F7DF9CF3E2BDACFCF93DF9390E053
:1003D000FC01E255FF4F249186569F4FFC0184910A
:1003E0008823D1F090E0880F991FFC01E859FF4F56
:1003F000A591B491FC01EE58FF4FC591D4916111C4
:100400000EC09FB7F8948C91E22FE0958E238C93C9
:100410002881E223E8839FBFDF91CF9108958FB7B2
:10042000F894EC91E22BEC938FBFF6CF1F93CF9310
:10043000DF93182FEB0161E00E94E501209739F46A
:1004400060E0812FDF91CF911F910C949901CF3FF4
:10045000D10511F461E0F5CFE12FF0E0E458FF4F52
:10046000E491E33031F140F4E130B1F0E230E1F019
:10047000C038D1057CF7E4CFE73029F1E83059F1F5
:10048000E430B1F780918000806280938000D09347
:100490008B00C0938A0004C084B5806884BDC7BD4A
:1004A000DF91CF911F91089584B5806284BDC8BD4E
:1004B000F7CF80918000806880938000D09389007E
:1004C000C0938800EDCF8091B00080688093B00029
:1004D000C093B300E5CF8091B00080628093B000FC
:1004E000C093B400DDCF3FB7F89480916103909141
:1004F0006203A0916303B091640326B5A89B05C075
:100500002F3F19F00196A11DB11D3FBFBA2FA92F92
:10051000982F8827BC01CD01620F711D811D911D8F
:1005200042E0660F771F881F991F4A95D1F70895FB
:100530008F929F92AF92BF92CF92DF92EF92FF92F3
:100540004B015C010E9473026B017C010E947302EB
:100550006C197D098E099F09683E734081059105DC
:10056000A8F321E0821A9108A108B10888EEC80E0C
:1005700083E0D81EE11CF11C81149104A104B10494
:1005800029F7FF90EF90DF90CF90BF90AF909F90B2
:100590008F900895089590E080E00895CF93DF93C1
:1005A000EC0160E08E810E94990161E08E810E94E1
:1005B000990160E08E810E9499018BE891E001979A
:1005C000F1F7DF91CF910895CF92DF92EF92FF92F2
:1005D0000F931F93CF93DF936C017C0187E0E80EAC
:1005E000F11CD0E0C0E0062F10E0B8010C2E02C0D4
:1005F000759567950A94E2F76170F70181917F0123
:100600000E9499012196C430D10579F7C601DF9186
:10061000CF911F910F91FF90EF90DF90CF900C94AE
:10062000CE02CF92DF92EF92FF920F931F93CF9360
:10063000DF93EC01F62E642F8C810E9499018D814D
:100640008F3F19F060E00E9499010F2D10E08F8517
:1006500084FF25C06E0187E0C80ED11CF12CE12C6F
:10066000B8010E2C02C0759567950A94E2F7617087
:10067000F60181916F010E949901FFEFEF1AFF0AC5
:1006800088E0E816F10461F7CE01DF91CF911F9168
:100690000F91FF90EF90DF90CF900C94CE02B801B5
:1006A00084E0759567958A95E1F7CE010E94E40292
:1006B0006F2DCE01DF91CF911F910F91FF90EF90A1
:1006C000DF90CF900C94E40240E0682F82E094E049
:1006D0000C94110381E00E9464038BE39FE1019776
:1006E000F1F70895CF93DF93823029F490911104AC
:1006F000986090931104809315041092160480E47E
:100700008093170480E18093180480E58093190496
:1007100061E0809106040E94E501809107048F3F0B
:1007200019F061E00E94E50161E0809108040E94F7
:10073000E501C2E0D4E09E012250344080911104D2
:1007400084FD0BC084E090E021962817390744F41B
:1007500061E08E810E94E501EECF88E090E0F4CF69
:100760008BE39DE00197F1F760E0809106040E9421
:10077000990160E0809108040E949901809107042A
:100780008F3F19F060E00E9499018091110484FD6F
:1007900034C063E082E094E00E94E402CBE4D6E45B
:1007A000CE010197F1F763E082E094E00E94E40259
:1007B0002197F1F763E082E094E00E94E40283E590
:1007C00092E00197F1F762E082E094E00E94E40297
:1007D0008091110480620E94640384E0809312047B
:1007E0008CE00E9464030E946A0382E080931304F9
:1007F00086E0DF91CF910C94640380620E946403D1
:100800008BE496E40197F1F78091110480620E94D5
:10081000640383E592E00197F1F78091110480620F
:100820000E946403D5CF90911504891710F08FEFC3
:10083000890FE82FF0E0EE5FFB4F848980680C940D
:10084000640341E00E94110381E090E00895FB0100
:1008500001900020E9F73197AF01461B570BDC01EF
:10086000ED91FC910280F381E02D09948F929F928B
:10087000AF92BF920F931F93CF93DF93CDB7DEB7A5
:10088000A1970FB6F894DEBF0FBECDBF19A24230BC
:1008900008F44AE08E010F5D1F4F842E912CB12C7D
:1008A000A12CA50194010E943609E62FB901CA01C5
:1008B000EA3004F5E05DD801EE938D01232B242B63
:1008C000252B79F790E080E0109729F0BD0185E6AF
:1008D00093E00E942704A1960FB6F894DEBF0FBEE6
:1008E000CDBFDF91CF911F910F91BF90AF909F909F
:1008F0008F900895E95CDFCFCF93DF93BC0185E64D
:1009000093E00E942704EC0162E271E085E693E047
:100910000E9427048C0F9D1FDF91CF910895CF92E5
:10092000DF92EF92FF92CF93DF936C01990FEE0865
:10093000FF08F7FE21C06DE285E693E00E942C01DE
:10094000EC0166277727CB016C197D098E099F0979
:100950004AE00E943604C80FD91F62E271E085E6C2
:1009600093E00E9427048C0F9D1FDF91CF91FF9091
:10097000EF90DF90CF9008954AE0C701B6010E9442
:100980003604EC01EACF0C942704CF93C82F0E94C1
:100990006A0380E00E94130465E271E082E094E063
:1009A0000E94C30441E06C2F82E094E00E94110396
:1009B000EFECEC0FE43108F010C10E2E000CFF0B31
:1009C000EC51FB4F0C945809F80415052B0546050E
:1009D0005A056A0579058905ED05ED05ED05ED0575
:1009E000ED05ED05ED05ED05DA05C305B005980546
:1009F00081E00E94130460E371E082E094E00E94D1
:100A0000C30480E491E00E947C0461E08DE00E94D8
:100A1000990160E08AE00E94990160910201709161
:100A200003018EE0CF910C94160281E00E94130422
:100A300060E571E082E094E00E94C30480E691E00A
:100A40000E947C0460E08DE00E94990160E08AE0F1
:100A5000CF910C94990181E00E94130461E771E049
:100A600082E094E00E94C30480E891E00E947C044C
:100A700061E087E00E94990160E086E00E949901B0
:100A800060910001709101018FE0CCCF81E00E9464
:100A9000130460E971E082E094E00E94C30480EAFC
:100AA00091E00E947C0460E087E00E94990160E090
:100AB00086E0CECF81E00E94130461EB71E082E01A
:100AC00094E00E94C3048EEB91E00E947C0461E0FC
:100AD00080E1BECF81E00E9413046BEC71E082E004
:100AE00094E00E94C30489ED91E00E947C0460E0E0
:100AF000EFCF81E00E94130467EE71E082E094E0A2
:100B00000E94C30487EE91E00E947C0461E088E0CB
:100B10009FCF81E00E94130463EF71E082E094E0D4
:100B20000E94C30483EF91E00E947C0460E0EFCF59
:100B300081E00E94130460E072E082E094E00E9491
:100B4000C30481E192E00E947C04809102019091B3
:100B50000301C2969093030180930201CF910895FF
:100B600081E00E94130468E272E082E094E00E9457
:100B7000C30489E392E00E947C0480910201909179
:100B80000301C297E7CF81E00E94130460E572E0A1
:100B900082E094E00E94C30481E692E00E947C041B
:100BA0008091000190910101C29690930101809380
:100BB0000001D4CF81E00E94130468E772E082E074
:100BC00094E00E94C30489E892E00E947C04809132
:100BD000000190910101C297E8CF0E946A0360EA88
:100BE00072E082E094E00E94C3048EEA92E0CF912A
:100BF0000C947C041F920F920FB60F9211242F9326
:100C00003F934F935F936F937F938F939F93AF9394
:100C1000BF93EF93FF9385E693E00E940A01FF9153
:100C2000EF91BF91AF919F918F917F916F915F9164
:100C30004F913F912F910F900FBE0F901F901895DD
:100C40001F920F920FB60F9211242F938F939F93A1
:100C5000EF93FF93E0917503F09176038081E0912B
:100C60007B03F0917C0382FD1BC0908180917E0309
:100C70008F5F8F7320917F03821741F0E0917E0395
:100C8000F0E0EB59FC4F958F80937E03FF91EF913D
:100C90009F918F912F910F900FBE0F901F901895DD
:100CA0008081F4CF1F920F920FB60F9211242F93D1
:100CB0003F938F939F93AF93BF9380915D039091E8
:100CC0005E03A0915F03B091600330915C0323E069
:100CD000230F2D3758F50196A11DB11D20935C03FC
:100CE00080935D0390935E03A0935F03B0936003D2
:100CF0008091610390916203A0916303B0916403BA
:100D00000196A11DB11D8093610390936203A0938E
:100D10006303B0936403BF91AF919F918F913F9113
:100D20002F910F900FBE0F901F90189526E8230F5C
:100D30000296A11DB11DD2CFCF92DF92EF92FF920A
:100D40000F931F93E82FF92F05C0015011092109B6
:100D5000310961F1908196239417B9F305C00150D0
:100D600011092109310911F1908196239413F7CFCC
:100D7000C12CD12CE12CF12C0AC08FEFC81AD80A53
:100D8000E80AF80A0C151D052E053F0579F080814B
:100D90008623841791F36C2D7D2D8E2D9F2D1F9111
:100DA0000F91FF90EF90DF90CF90089560E070E09A
:100DB00080E090E01F910F91FF90EF90DF90CF9037
:100DC0000895E5E6F3E01382128288EE93E0A0E056
:100DD000B0E084839583A683B78388E091E0918314
:100DE000808385EC90E09587848784EC90E09787FA
:100DF000868780EC90E0918B808B81EC90E0938BE8
:100E0000828B82EC90E0958B848B86EC90E0978BC4
:100E1000868B118E128E138E148EE2E0F4E0138214
:100E200012828AE191E0918380838CE084838FEF4A
:100E300085838BE0868385E0878384E0808783E0F9
:100E4000818782E082871386148615861686178628
:100E500081E00C947203789484B5826084BD84B57B
:100E6000816084BD85B5826085BD85B5816085BDA5
:100E700080916E00816080936E001092810080915D
:100E800081008260809381008091810081608093E5
:100E90008100809180008160809380008091B1000A
:100EA00084608093B1008091B00081608093B00035
:100EB00080917A00846080937A0080917A008260C9
:100EC00080937A0080917A00816080937A0080918B
:100ED0007A00806880937A001092C100E0917503D7
:100EE000F091760382E08083E0917103F0917203C8
:100EF0001082E0917303F09174038FEC8083109261
:100F00007D03E0917903F0917A0386E08083E0919C
:100F10007703F0917803808180618083E09177038B
:100F2000F0917803808188608083E0917703F0916D
:100F30007803808180688083E0917703F091780363
:100F400080818F7D808382E00E94720360E089E06F
:100F50000E94E50161E08DE00E94E50161E08AE028
:100F60000E94E50161E087E00E94E50161E086E022
:100F70000E94E50161E08EE00E94E50161E08FE002
:100F80000E94E50161E080E10E94E50161E088E006
:100F90000E94E50180E00E94130462EE72E082E0AC
:100FA00094E00E94C30481E00E94130464EF72E0A5
:100FB00082E094E00E94C30468EE73E080E090E079
:100FC0000E9498020E946A03C7EBD0E093EAA92E20
:100FD00090E0B92E20E0822E20E0922EFE01649156
:100FE000F5018491E82FF0E0EE0FFF1FE057FF4F6F
:100FF0008591949100E412E42FE030E0462F0E94A6
:101000009C066B017C01C114D104E104F10439F0A8
:10101000FFEFCF1ADF0AEF0AFF0A2FE0F22266E0A5
:1010200073E085E693E00E94C3044AE0C701B6017D
:101030000E94360462E271E085E693E00E94270494
:1010400067E173E085E693E00E94C30480910201AA
:10105000909103010E948F0467E273E085E693E0BC
:101060000E94C30480910001909101010E948F04AD
:101070006CEB72E080E090E00E949802D701C6011C
:101080008F5D9642A109B1094397A105B105A8F466
:1010900081E30E94C50464E670E080E090E00E9475
:1010A00098028114910409F499CF0E94F6008823D4
:1010B00009F494CF0E94000091CFD701C601895353
:1010C0009A44A109B10989319440A105B10510F4F0
:1010D00082E3DFCFD701C60189549147A109B10945
:1010E00089319440A105B10510F483E3D2CFD70133
:1010F000C60189559849A109B10989319440A105D2
:10110000B10510F484E3C5CFD701C60189569F4BC2
:10111000A109B10989319440A105B10510F485E315
:10112000B8CFD701C6018957964EA109B1098931B7
:101130009440A105B10510F486E3ABCFD701C601F9
:1011400089589D40A140B10989319440A105B1055C
:1011500010F487E39ECFD701C60189599443A1407B
:10116000B10989319440A105B10510F488E391CF0C
:10117000D701C601895A9B45A140B10989319440E4
:10118000A105B10510F489E384CFD701C601895BBD
:101190009248A140B10989319440A105B10510F4EC
:1011A0008AE277CFD701C601895C994AA140B1098B
:1011B00089319440A105B10510F480E36ACFD701CD
:1011C000C601895D904DA140B10989319440A105C6
:1011D000B10510F483E25DCFD701C601895E974F58
:1011E000A140B10989319440A105B10510F481E411
:1011F00050CFD701C601895F9E41A240B1098F330C
:101200009F41A105B10510F482E443CFD701C60187
:1012100089509644A240B10989319440A105B10595
:1012200010F483E436CF29E1C21A2DE6D20A22E077
:10123000E20AF10889E1C81684E0D806E104F10465
:1012400010F484E426CF80E00E94130467E373E087
:1012500082E094E00E94C30481E00E9413046AE4E7
:1012600073E082E094E00E94C30415CFA1E21A2E3D
:10127000AA1BBB1BFD010DC0AA1FBB1FEE1FFF1F3A
:10128000A217B307E407F50720F0A21BB30BE40B8A
:10129000F50B661F771F881F991F1A9469F76095D1
:1012A0007095809590959B01AC01BD01CF0108958B
:1012B000EE0FFF1F0590F491E02D0994F894FFCFF5
:1012C00096009600000000002C018C00B900790106
:1012D000EA00C800DC000000000021048C00CB0202
:1012E000CA020D0A0052656365697665643A20009A
:1012F0007475726E206F6E204D6F746F72203100A6
:101300007475726E206F6E206D6F746F7220310075
:101310007475726E206F4646204D6F746F72310087
:101320007475726E204F4646206D6F746F72203157
:10133000007475726E206F6E204D6F746F72320084
:101340007475726E204F6E206D6F746F7220320054
:101350007475726E206F4646204D6F746F72320046
:101360007475726E204F4646206D6F746F72203216
:10137000007475726E206F6E206C616D70007475F4
:10138000726E204F6E206C616D70007475726E20ED
:101390006F4646206C616D70007475726E204F460A
:1013A00046206C616D70007475726E206F6E206CDB
:1013B0006564007475726E206F4646206C6564002B
:1013C000696E63207370656564206D6F746F723130
:1013D00000696E6372656173652073706565642072
:1013E0006D6F746F72203100646563207370656582
:1013F00064206D6F746F7231006465637265617330
:1014000065207370656564206D6F746F72203100A4
:10141000696E63207370656564206D6F746F7232DE
:1014200000696E6372656173652073706565642021
:101430006D6F746F72203200646563207370656530
:1014400064206D6F746F72320064656372656173DE
:1014500065207370656564206D6F746F7220320053
:1014600057726F6E6720696E206E756D2100796FFF
:1014700075206861766520656E7465726420777288
:101480006F6E67206E756D62657220646F6E277473
:1014900020657869737420696E206F7074696F6E4F
:1014A000730020202057454C434F4D4520544F207A
:1014B00020202000204C694669205245434549566A
:1014C00045522020200050756C7365204475726170
:1014D00074696F6E3A20007370656564206D6F7477
:1014E0006F7220313A20007370656564206D6F74EF
:1014F0006F7220323A200057616974696E67206606
:101500006F72205369676E616C002D2D2D2D2D2D6E
:0C1510002D2D2D2D2D2D2D2D2D2D00000D
:107E0000112484B714BE81FFF0D085E080938100F7
:107E100082E08093C00088E18093C10086E0809377
:107E2000C20080E18093C4008EE0C9D0259A86E02C
:107E300020E33CEF91E0309385002093840096BBD3
:107E4000B09BFECF1D9AA8958150A9F7CC24DD24C4
:107E500088248394B5E0AB2EA1E19A2EF3E0BF2EE7
:107E6000A2D0813461F49FD0082FAFD0023811F036
:107E7000013811F484E001C083E08DD089C08234E0
:107E800011F484E103C0853419F485E0A6D080C0E4
:107E9000853579F488D0E82EFF2485D0082F10E0AE
:107EA000102F00270E291F29000F111F8ED06801E7
:107EB0006FC0863521F484E090D080E0DECF843638
:107EC00009F040C070D06FD0082F6DD080E0C81688
:107ED00080E7D80618F4F601B7BEE895C0E0D1E017
:107EE00062D089930C17E1F7F0E0CF16F0E7DF06D8
:107EF00018F0F601B7BEE89568D007B600FCFDCFD4
:107F0000A601A0E0B1E02C9130E011968C91119780
:107F100090E0982F8827822B932B1296FA010C0160
:107F200087BEE89511244E5F5F4FF1E0A038BF0790
:107F300051F7F601A7BEE89507B600FCFDCF97BE46
:107F4000E89526C08437B1F42ED02DD0F82E2BD052
:107F50003CD0F601EF2C8F010F5F1F4F84911BD097
:107F6000EA94F801C1F70894C11CD11CFA94CF0C13
:107F7000D11C0EC0853739F428D08EE10CD085E9AC
:107F80000AD08FE07ACF813511F488E018D01DD067
:107F900080E101D065CF982F8091C00085FFFCCF94
:107FA0009093C60008958091C00087FFFCCF809118
:107FB000C00084FD01C0A8958091C6000895E0E648
:107FC000F0E098E1908380830895EDDF803219F02E
:107FD00088E0F5DFFFCF84E1DECF1F93182FE3DFCA
:107FE0001150E9F7F2DF1F91089580E0E8DFEE27F6
:047FF000FF270994CA
:027FFE00040479
:00000001FF
